:100000008A110A120528000009009F01831640305A
:100010009F0041308F00031783120F309E009F0115
:100020000313D8309F008101640083168C30810057
:100030008312AF01B001831605148514051505164A
:1000400085120612861606138613071087100711ED
:10005000871507128712071387138312851206125A
:100060000613861307108714071107128712071348
:100070008713AD102D112D12AD122D13AD132E10AF
:10008000AE14AE112E1673221122AE1D48282E1763
:100090001F3083052E1D5D281F3083052E1B5D2814
:1000A0001F3083052F08003C031D5D2806170A300A
:1000B000A000A1013423061373281F3083052E1DD1
:1000C00071281F3083052E1F71281F3083052F08CC
:1000D000003C031D712807150A30A000A10134233C
:1000E00007111F3083051F3083053F302F0203188F
:1000F0007D282F08013EAF0080281F308305AF0107
:100100001F308305B2013208093C031C37295422F1
:1001100064009F17831630309F0000308312A000C8
:10012000672383161E088312B5001E08B6009F17AA
:10013000831630309F0003308312A000672383169C
:100140001E088312B9001E08BA009F1783163030AC
:100150009F0007308312A000672383161E088312B6
:10016000B7001E08B8009F17831630309F0002307A
:100170008312A000672383161E088312BB001E088B
:10018000BC003708A0003808A1000330A300E53008
:100190001823031DCE282D16AD162E171F308305EC
:1001A0003708A0003808A1000330A300E5301B2366
:1001B000031DE9281F3083053708A0003808A10077
:1001C0000330A300D7301823031DE9282D16AD12E4
:1001D0002E131F3083053708A0003808A100033014
:1001E000A300D7301B23031DF8282D12AD162E17A0
:1001F0001F3083053908A0003A08A1000330A3008E
:10020000E5301823031D07292D17AD172E171F30B2
:1002100083053908A0003A08A1000330A300E530A7
:100220001B23031D22291F3083053908A0003A082B
:10023000A1000330A300D7301823031D22292D1756
:10024000AD132E131F3083053908A0003A08A10012
:100250000330A300D7301B23031D31292D13AD1705
:100260002E171F3083050130B207031C83281F306F
:1002700083059A212C1F3E29AE1544281F30830583
:10028000B2013208093C031C962964005422350847
:10029000A0003608A1000330A300E5301823031D99
:1002A00055292E14AE14AD10AE151F308305350838
:1002B000A0003608A1000330A300BB301B23031DA0
:1002C00073291F3083053508A0003608A1000230CD
:1002D000A300AB301823031D73292E14AE10AD14E8
:1002E0002D15AE112E161F3083053508A0003608D7
:1002F000A1000230A300EE301B23031D8029AE15A0
:100300001F3083053508A0003608A1000230A30085
:10031000AB301B23031D90292D112E10AE14AD15EB
:100320001F3083050130B207031C41291F308305AC
:1003300044289929071387130130A000A101342311
:100340009F17831630309F0000308312A000672370
:1003500083161E088312B5001E08B6003508A000DB
:100360003608A1000130A30055301B23031DBE2910
:100370002C17AD10AD112E10AE14C1291F308305FE
:100380002C131F30830511226430A8005D23080060
:100390002E1DD12985120712061307110612071008
:1003A0000E2A1F3083052D1A06172D1E0613AD1AAF
:1003B0000715AD1E07112D1B07162D1F0712AD1BAC
:1003C0008516AD1F85122E1807142E1C0710AE18A7
:1003D0000616AE1C061207303102031CF4291F302A
:1003E00083052C1FF42906161F30830507303102C0
:1003F0000318FF291F3083052C1FFF2906121F3009
:1004000083050F3031020318092A3108013EB1007B
:100410000C2A1F308305B1011F3083051F3083056F
:100420000800AD188717AD1C87132D1987162D1DD1
:100430008712AD190717AD1D0713C821861E2D148D
:10044000861A2D1000012E1E013EAE1D013E03191D
:10045000AE16031DAE120C303002031C342A1F30BE
:100460008305AE1E342A87141F3083050C303002FA
:1004700003183F2A1F308305AE1E3F2A87101F3006
:1004800083050F3030020318492A3008013EB000BE
:100490004C2A1F308305B0011F308305AE1A512A44
:1004A00087141F3083050800861A5C2AFF30B300CA
:1004B000FF30B4002E112E121F308305013033029D
:1004C000B3000030031C013E3402B4003308A00026
:1004D0003408A100A30100301223031D702A2E1539
:1004E0001F308305080064000130B20032080A3C66
:1004F000031C842A85161430A000A1013423851220
:100500000130B207031C762A1F30830564000130D6
:10051000B20032080A3C031C972A07161430A000C8
:10052000A101342307120130B207031C892A1F30AE
:10053000830564000130B20032080A3C031CAA2A79
:1005400006171430A000A101342306130130B207AE
:10055000031C9C2A1F30830564000130B20032085E
:100560000A3C031CBD2A07151430A000A101342346
:1005700007110130B207031CAF2A1F308305640046
:100580000130B20032080A3C031CD02A061614308F
:10059000A000A101342306120130B207031CC22AB5
:1005A0001F30830564000130B20032080A3C031C8E
:1005B000E32A07141430A000A101342307100130EE
:1005C000B207031CD52A1F30830564000130B20036
:1005D0003208023C031C082B851607160617071560
:1005E000061607148710C830A000A1013423640048
:1005F0008512071206130711061207108714C83058
:10060000A000A101342364000130B207031CE82AD2
:100610001F3083056400C830A000A10134236400AA
:100620000800112BA2000530242BA2000230242B3D
:10063000A2000630242BA2000330242BA200043099
:10064000242BA2000130242BA80023082102031D23
:100650002B2B22082002043003180130031902302A
:100660002805031DFF300800A00803193F2B46236F
:10067000A00300000000000000000000342BA108CF
:10068000031908004623A103A003342B0C30A50056
:10069000A50B482B000000000330A200A20B552B35
:1006A0005723572300000000080057234E2B0D301E
:1006B000A400A40B592B000008002530A802031C3D
:1006C0000800622B1830A802031C0800622BA00D42
:1006D000A00D3C30A005C0309F0520089F041F14CA
:1006E0001430A8005D239F149F18742B0C131F1047
:0206F000080000
:02400E00BC33C1
:00000001FF
