:100000008A110A12CD28000009001030A800A101B1
:10001000A001A70CA60C031C13282208A007230884
:100020000318230FA107A10CA00CA50CA40CA80B6E
:100030000928240808001030A600A501A401210DFC
:10004000A40DA50D2208A4022308031C230FA5025A
:10005000031831282208A40723080318230FA50733
:100060000310A00DA10DA60B1F2820080800A20058
:1000700005304928A20002304928A200063049284C
:10008000A20003304928A20004304928A200013010
:100090004928A80023082102031D50282208200215
:1000A000043003180130031902302805031DFF3006
:1000B0000800A008031964286B20A00300000000BA
:1000C0000000000000005928A108031908006B2057
:1000D000A103A00359280C30A500A50B6D28000032
:1000E00000000330A200A20B7A287C207C200000B4
:1000F000000008007C2073280D30A400A40B7E288B
:10010000000008002530A802031C080087281830CA
:10011000A802031C080087283D30A8020001031C28
:10012000013EA902031C080095282830A8020001FE
:10013000031C013EA902031C08009528A00DA00D78
:100140003C30A005C0309F0520089F041F141430C8
:10015000A80082209F149F18AB280C131F100800C2
:10016000AA00D030A8000730A9008C202C088400F9
:100170000930AB000310C220AA0CAB0BBB28031440
:10018000C220080000082D04031C2D0680002E0844
:10019000A8002F08A9008C200800D8309F008316E3
:1001A00040309F0041308F000317831289309E003A
:1001B00008309F000313810183168E308100831263
:1001C000640083160514851405118515051685121E
:1001D0000612861606138613071087100711871557
:1001E00007128712071387138312851285120612CE
:1001F00006138613071087100711071287120713BB
:100200008713B01130123013B0133110B110311107
:10021000B111B21032143211B016B2150130B6005D
:10022000B701B113B1123113B301B4013213D101CB
:100230008A150A1235218A150A12772064008A115C
:100240000A12311E3C291F3083058A110A12B21886
:100250003C291F3083053308003C8A110A12031D14
:100260003C2906170A30A000A1018A110A12592060
:1002700006138A110A125A291F3083058A110A129D
:10028000311E58291F3083058A110A12B21C5829C1
:100290001F3083053308003C8A110A12031D5829B8
:1002A00007150A30A000A1018A110A12592007116E
:1002B0001F3083051F3083053308003C8A110A1262
:1002C000031DE0293A08A6003B08A7000830A20059
:1002D000A3018A110A120520C1002508C2004108A5
:1002E000A000A1010830A200A3018A110A121B205C
:1002F000C3003C08A6003D08A7000830A200A301E7
:100300008A110A120520C4002508C5004408A0006F
:10031000A1010830A200A3018A110A121B20C60005
:100320003808A6003908A7000830A200A3018A11E6
:100330000A120520CA002508CB004A08A000A10126
:100340000830A200A3018A110A121B20CC003E082B
:10035000A6003F08A7000830A200A3018A110A12D4
:100360000520C7002508C8004708A000A1010830E3
:10037000A200A3018A110A121B20C900831686134A
:10038000831286170630AC008030AD006C30AE00B2
:100390000130AF008A110A12FF30B0204208B020AD
:1003A0004308B0204508B0204608B0204B08B020D4
:1003B0004C08B0204808B0204908B0204008B020C0
:1003C0001F3083053F3033028A110A120318EE29C9
:1003D0003308013EB3008A110A12F1291F30830548
:1003E000B3011F3083058A150A120A216400CF0168
:1003F000D0019F17831630309F0003308312A00076
:100400008A110A129E2083161E088312BC001E0841
:10041000BD004F083C07CF0050080318013E3D07C0
:10042000D0000130A000A1018A110A1259209F17A3
:10043000831630309F0003308312A0008A110A1205
:100440009E2083161E088312BC001E08BD004F08A4
:100450003C07CF0050080318013E3D07D000013093
:10046000A000A1018A110A1259209F17831630306B
:100470009F0003308312A0008A110A129E20831667
:100480001E088312BC001E08BD004F083C07CF00A9
:1004900050080318013E3D07D0000130A000A10123
:1004A0008A110A1259209F17831630309F0003309B
:1004B0008312A0008A110A129E2083161E0883123E
:1004C000BC001E08BD004F083C07CF0050080318B1
:1004D000013E3D07D0000130A000A1018A110A129F
:1004E00059209F17831630309F0003308312A000DD
:1004F0008A110A129E2083161E088312BC001E0851
:10050000BD004F083C07CF0050080318013E3D07CF
:10051000D0000130A000A1018A110A1259209F17B2
:10052000831630309F0003308312A0008A110A1214
:100530009E2083161E088312BC001E08BD004F08B3
:100540003C07CF0050080318013E3D07D0000130A2
:10055000A000A1018A110A1259209F17831630307A
:100560009F0003308312A0008A110A129E20831676
:100570001E088312BC001E08BD004F083C07CF00B8
:1005800050080318013E3D07D0000130A000A10132
:100590008A110A1259209F17831630309F000330AA
:1005A0008312A0008A110A129E2083161E0883124D
:1005B000BC001E08BD004F083C07CF0050080318C0
:1005C000013E3D07D0004F08A0005008A1000830B0
:1005D000A200A3018A110A121B20BC002108BD0041
:1005E000CF01D0019F17831630309F000730831250
:1005F000A0008A110A129E2083161E088312BA00D8
:100600001E08BB004F083A07CF0050080318013EF0
:100610003B07D0000130A000A1018A110A12592025
:100620009F17831630309F0007308312A0008A1175
:100630000A129E2083161E088312BA001E08BB00F1
:100640004F083A07CF0050080318013E3B07D0007F
:100650000130A000A1018A110A1259209F178316A8
:1006600030309F0007308312A0008A110A129E20AA
:1006700083161E088312BA001E08BB004F083A07F3
:10068000CF0050080318013E3B07D0000130A00006
:10069000A1018A110A1259209F17831630309F003A
:1006A00007308312A0008A110A129E2083161E08AA
:1006B0008312BA001E08BB004F083A07CF0050084B
:1006C0000318013E3B07D0000130A000A1018A11B0
:1006D0000A1259209F17831630309F00073083126B
:1006E000A0008A110A129E2083161E088312BA00E7
:1006F0001E08BB004F083A07CF0050080318013E00
:100700003B07D0000130A000A1018A110A12592034
:100710009F17831630309F0007308312A0008A1184
:100720000A129E2083161E088312BA001E08BB0000
:100730004F083A07CF0050080318013E3B07D0008E
:100740000130A000A1018A110A1259209F178316B7
:1007500030309F0007308312A0008A110A129E20B9
:1007600083161E088312BA001E08BB004F083A0702
:10077000CF0050080318013E3B07D0000130A00015
:10078000A1018A110A1259209F17831630309F0049
:1007900007308312A0008A110A129E2083161E08B9
:1007A0008312BA001E08BB004F083A07CF0050085A
:1007B0000318013E3B07D0004F08A0005008A100DD
:1007C0000830A200A3018A110A121B20BA002108D6
:1007D000BB009F17831630309F0002308312A000A9
:1007E0008A110A129E2083161E088312BE001E085C
:1007F000BF0064008A110A1285199F2E8A150A12F9
:100800000A21B630CD000330CE00CF01D0019F17B2
:10081000831630309F0003308312A0008A110A1221
:100820009E2083161E088312BC001E08BD004F08C0
:100830003C07CF0050080318013E3D07D0000130AF
:10084000A000A1018A110A1259209F178316303087
:100850009F0003308312A0008A110A129E20831683
:100860001E088312BC001E08BD004F083C07CF00C5
:1008700050080318013E3D07D0000130A000A1013F
:100880008A110A1259209F17831630309F000330B7
:100890008312A0008A110A129E2083161E0883125A
:1008A000BC001E08BD004F083C07CF0050080318CD
:1008B000013E3D07D0000130A000A1018A110A12BB
:1008C00059209F17831630309F0003308312A000F9
:1008D0008A110A129E2083161E088312BC001E086D
:1008E000BD004F083C07CF0050080318013E3D07EC
:1008F000D0000130A000A1018A110A1259209F17CF
:10090000831630309F0003308312A0008A110A1230
:100910009E2083161E088312BC001E08BD004F08CF
:100920003C07CF0050080318013E3D07D0000130BE
:10093000A000A1018A110A1259209F178316303096
:100940009F0003308312A0008A110A129E20831692
:100950001E088312BC001E08BD004F083C07CF00D4
:1009600050080318013E3D07D0000130A000A1014E
:100970008A110A1259209F17831630309F000330C6
:100980008312A0008A110A129E2083161E08831269
:10099000BC001E08BD004F083C07CF0050080318DC
:1009A000013E3D07D0000130A000A1018A110A12CA
:1009B00059209F17831630309F0003308312A00008
:1009C0008A110A129E2083161E088312BC001E087C
:1009D000BD004F083C07CF0050080318013E3D07FB
:1009E000D0004F08A0005008A1000830A200A301C9
:1009F0008A110A121B20BC002108BD00CF01D001C2
:100A00009F17831630309F0007308312A0008A1191
:100A10000A129E2083161E088312BA001E08BB000D
:100A20004F083A07CF0050080318013E3B07D0009B
:100A30000130A000A1018A110A1259209F178316C4
:100A400030309F0007308312A0008A110A129E20C6
:100A500083161E088312BA001E08BB004F083A070F
:100A6000CF0050080318013E3B07D0000130A00022
:100A7000A1018A110A1259209F17831630309F0056
:100A800007308312A0008A110A129E2083161E08C6
:100A90008312BA001E08BB004F083A07CF00500867
:100AA0000318013E3B07D0000130A000A1018A11CC
:100AB0000A1259209F17831630309F000730831287
:100AC000A0008A110A129E2083161E088312BA0003
:100AD0001E08BB004F083A07CF0050080318013E1C
:100AE0003B07D0000130A000A1018A110A12592051
:100AF0009F17831630309F0007308312A0008A11A1
:100B00000A129E2083161E088312BA001E08BB001C
:100B10004F083A07CF0050080318013E3B07D000AA
:100B20000130A000A1018A110A1259209F178316D3
:100B300030309F0007308312A0008A110A129E20D5
:100B400083161E088312BA001E08BB004F083A071E
:100B5000CF0050080318013E3B07D0000130A00031
:100B6000A1018A110A1259209F17831630309F0065
:100B700007308312A0008A110A129E2083161E08D5
:100B80008312BA001E08BB004F083A07CF00500876
:100B90000318013E3B07D0000130A000A1018A11DB
:100BA0000A1259209F17831630309F000730831296
:100BB000A0008A110A129E2083161E088312BA0012
:100BC0001E08BB004F083A07CF0050080318013E2B
:100BD0003B07D0004F08A0005008A1000830A20039
:100BE000A3018A110A121B20BA002108BB003A088F
:100BF000A0003B08A1000330A300C3308A110A12F1
:100C00003D208A110A12031D072E3017B0171F301E
:100C100083053A08A0003B08A1000330A300C330BD
:100C20008A110A1240208A110A12031D292E1F3030
:100C300083053A08A0003B08A1004E08A3004D0818
:100C40008A110A123D208A110A12031D292E30171B
:100C5000B0131F3083053A08A0003B08A1004E08DE
:100C6000A3004D088A110A1240208A110A12031D9E
:100C70003B2E3013B0171F3083053C08A0003D0801
:100C8000A1000330A300C3308A110A123D208A114B
:100C90000A12031D4D2E3114B1141F3083053C0878
:100CA000A0003D08A1000330A300C3308A110A123E
:100CB00040208A110A12031D6F2E1F3083053C0845
:100CC000A0003D08A1004E08A3004D088A110A1299
:100CD0003D208A110A12031D6F2E3114B1101F30EE
:100CE00083053C08A0003D08A1004E08A3004D0864
:100CF0008A110A1240208A110A12031D812E311016
:100D0000B1141F3083058A150A124D2064008A1120
:100D10000A128519912E8A110A12052C8A110A12BB
:100D20009D2E1F3083059330CD000330CE0032302E
:100D3000A000A1018A110A1259201F3083051F301B
:100D400083053A08A0003B08A1000330A300C3308C
:100D50008A110A123D208A110A12031DB12E301782
:100D6000B0171F3083053A08A0003B08A1000330EC
:100D7000A300C3308A110A1240208A110A12031DEF
:100D8000DB2E1F3083053A08A0003B08A1004E0867
:100D9000A3004D088A110A123D208A110A12031D70
:100DA000DB2E3017B0138A110A12B11ED82E32145E
:100DB0001F308305B1121F3083053A08A0003B089D
:100DC000A1004E08A3004D088A110A1240208A1182
:100DD0000A12031DEE2E3013B017B1161F30830513
:100DE0003C08A0003D08A1000330A300C3308A11D5
:100DF0000A123D208A110A12031D002F3114B1146A
:100E00001F3083053C08A0003D08A1000330A3006B
:100E1000C3308A110A1240208A110A12031D2A2F98
:100E20001F3083053C08A0003D08A1004E08A30028
:100E30004D088A110A123D208A110A12031D2A2F19
:100E40003114B1108A110A12311F272F32141F30AA
:100E5000830531131F3083053C08A0003D08A10025
:100E60004E08A3004D088A110A1240208A110A1266
:100E7000031D3D2F3110B11431171F3083058A1522
:100E80000A120E208A110A12301D4A2FB1178A1138
:100E90000A121B291F308305B5013508093C8A1544
:100EA0000A12031C062864008A150A120A2138084F
:100EB000A0003908A1000330A300C3308A110A1230
:100EC0003D208A110A12031D692F3115B115B01189
:100ED000B0121F3083053808A0003908A100033084
:100EE000A300C3308A110A1240208A110A12031D7E
:100EF000952F1F3083053808A0003908A100023063
:100F0000A300EE308A110A123D208A110A12031D35
:100F1000952F3115B1113016B2158A110A12B11F71
:100F2000932F3214B1131F3083051F308305380807
:100F3000A0003908A1000330A300C3308A110A12AF
:100F400040208A110A12031DB72F1F30830538086D
:100F5000A0003908A1000230A300AB308A110A12A8
:100F60003D208A110A12031DB72FB016B0151F308D
:100F700083053808A0003908A1000330A3002630FB
:100F80008A110A1240208A110A12031DC82FB211B9
:100F90001F3083058A110A12311CD12F8A110A12BF
:100FA000D72F1F3083058A110A12301FD82FB21590
:100FB0001F3083053808A0003908A1000230A300C3
:100FC000EE308A110A1240208A110A12031DE92FFD
:100FD000B1171F3083053808A0003908A10002307E
:100FE000A300AB308A110A1240208A110A12031D95
:100FF000FE2FB01130123111B115B0161F3083051C
:101000000130B5078A110A12031C4D2F1F308305CA
:101010008A110A121B298A150A120D280713871331
:1010200064000330A000A1018A110A125920640053
:101030009F17831630309F0000308312A0008A1162
:101040000A129E2083161E088312B8001E08B900DB
:101050003808A0003908A1000130A30055308A11DA
:101060000A1240208A150A12031D3F283015B011BC
:10107000B0123111B115B1178A150A1242281F306A
:10108000830530111F3083058A150A1277206430DA
:10109000A8008A110A12822008008A150A12311E3D
:1010A0005A288512071206130711061207108A150F
:1010B0000A1274281F308305301B0617301F0613D1
:1010C000B01B0715B01F071131180716311C071286
:1010D000B1188516B11C851231190714311D07107E
:1010E000B1190616B11D06121F3083050800B0198C
:1010F0008717B01D8713301A8716301E8712B01A53
:101100000717B01E0713B2190515B21D05118A1570
:101110000A124D20B2100001B11A013E311B0138F4
:101120000319B210031DB2140001B218013EB11B25
:1011300001380319B210031DB2148A150A12321CA9
:10114000D0280C3034028A150A12031CAE281F3036
:1011500083058A150A12B21CAE2887101F3083053A
:101160000C3034028A150A120318BD281F3083057B
:101170008A150A12B21CBD2887141F3083050F3050
:1011800034028A150A120318CB283408013EB40031
:101190008A150A12CE281F308305B4011F3083053B
:1011A0001F3083058A150A12B218D72887101F30FE
:1011B00083058A150A123218DE2887101F3083052E
:1011C000B01D4014B0194010301EC014301AC010A9
:1011D000B01E4015B01A4011B21DC015B219C01191
:1011E000301D4016301940128A150A12B01FFB2814
:1011F0008A150A1201291F3083058A150A12B11CAB
:101200000229C0161F308305B1194017B11D4013C4
:10121000C01308008A150A1285191A29FF30B60072
:10122000FF30B70031128A150A12B21C1829321089
:101230001F3083051F30830501303602B6000030B1
:10124000031C013E3702B7003608A0003708A10092
:10125000A30100308A110A1237208A150A12031DD1
:10126000322931161F308305080064000130B500B3
:1012700035080A3C8A150A12031C4C2985161430BD
:10128000A000A1018A110A12592085120130B50768
:101290008A150A12031C38291F30830564000130A7
:1012A000B50035080A3C8A150A12031C6529071681
:1012B0001430A000A1018A110A125920071201302E
:1012C000B5078A150A12031C51291F3083056400D3
:1012D0000130B50035080A3C8A150A12031C7E2924
:1012E00006171430A000A1018A110A125920061312
:1012F0000130B5078A150A12031C6A291F308305BD
:101300000130B50035080A3C8A150A12031C9629DB
:1013100007151430A000A1018A110A1259200711E3
:101320000130B5078A150A12031C82291F30830574
:1013300064000130B50035080A3C8A150A12031C06
:10134000AF2906161430A000A1018A110A125920F3
:1013500006120130B5078A150A12031C9B291F309B
:10136000830564000130B50035080A3C8A150A126D
:10137000031CC82907141430A000A1018A110A1205
:10138000592007100130B5078A150A12031CB42929
:101390001F30830564000130B5003508023C8A1512
:1013A0000A12031CF52985160716061707150616D7
:1013B00007148714C830A000A1018A110A1259200D
:1013C0006400851207120613071106120710871012
:1013D000C830A000A1018A110A125920640001300E
:1013E000B5078A150A12031CCD291F308305640036
:1013F000C830A000A1018A110A1259206400080017
:061400008A150A12022AFF
:02400E000C3371
:00000001FF
