:100000008A110A120528000009009F01831640305A
:100010009F0041308F000317831289309E00083003
:100020009F000313D8309F008101640083168E3037
:1000300081008312B301B4018316051485140511E0
:1000400085150516851206128616061386130710E7
:10005000871007118715071287120713871383125A
:1000600085128512061206138613071087100711D2
:100070000712871207138713B01130123013B01311
:100080003110B1103111B111B21032143211B01659
:10009000B2150130B600B701B113B11231133B23D1
:1000A0009F226400311E65281F308305B218652821
:1000B0001F3083053308003C031D652806170A30EE
:1000C000A000A1012D2406137B281F308305311EBB
:1000D00079281F308305B21C79281F308305330827
:1000E000003C031D792807150A30A000A1012D242A
:1000F00007111F3083051F3083053308003C031DA3
:10010000ED283A08A6003B08A7000830A200A3018A
:10011000D923C1002508C2004108A000A101083070
:10012000A200A301EF23C3003C08A6003D08A700DE
:100130000830A200A301D923C4002508C500440843
:10014000A000A1010830A200A301EF23C6003808D7
:10015000A6003908A7000830A200A301D923CA00CD
:100160002508CB004A08A000A1010830A200A30185
:10017000EF23CC003E08A6003F08A7000830A200ED
:10018000A301D923C7002508C8004708A000A10182
:100190000830A200A301EF23C9008316861383123F
:1001A00086170630AC008030AD009330AE000130D1
:1001B000AF00FF3084244208842443088424450887
:1001C0008424460884244B0884244C08842448084A
:1001D000842449088424400884241F3083053F3048
:1001E00033020318F7283308013EB300FA281F3002
:1001F0008305B3011F308305B5013508093C031C95
:10020000AF29182364009F17831630309F000330F6
:100210008312A000722483161E088312BC001E08DD
:10022000BD009F17831630309F0007308312A00057
:10023000722483161E088312BA001E08BB009F1783
:10024000831630309F0002308312A0007224831680
:100250001E088312BE001E08BF005630CD000330BA
:10026000CE003A08A0003B08A1000330A300C33031
:100270001124031D3D293017B0171F3083053A089C
:10028000A0003B08A1000330A300C3301424031DC9
:100290005D291F3083053A08A0003B08A1004E08E5
:1002A000A3004D081124031D5D293017B013B11EA2
:1002B0005A2932141F308305B1121F3083053A08C2
:1002C000A0003B08A1004E08A3004D081424031D04
:1002D0006C293013B017B1161F3083053C08A000FD
:1002E0003D08A1000330A300C3301124031D7A2967
:1002F0003114B1141F3083053C08A0003D08A10053
:100300000330A300C3301424031D9A291F30830532
:100310003C08A0003D08A1004E08A3004D08112490
:10032000031D9A293114B110311F972932141F303F
:10033000830531131F3083053C08A0003D08A10050
:100340004E08A3004D081424031DA9293110B1142F
:1003500031171F3083050130B507031CFD281F30FE
:1003600083054822301DB629B11750281F30830558
:10037000B5013508093C031C442A640018233808D9
:10038000A0003908A1000330A300C3301124031DCD
:10039000CD293115B115B011B0121F3083053808C1
:1003A000A0003908A1000330A300C3301424031DAA
:1003B000EF291F3083053808A0003908A10002305A
:1003C000A300EE301124031DEF293115B1113016B1
:1003D000B215B11FEC2932141F308305B1131F3041
:1003E00083053808A0003908A1000330A300C330FA
:1003F0001424031D092A1F3083053808A00039087A
:10040000A1000230A300AB301124031D092AB0164D
:10041000B0151F3083053808A0003908A10003304B
:10042000A30026301424031D162AB2111F308305A1
:10043000311C1B2A1F2A1F308305301F202AB215AA
:100440001F3083053808A0003908A1000230A3003E
:10045000EE301424031D2D2AB1171F3083053808F0
:10046000A0003908A1000230A300AB301424031D02
:100470003E2AB01130123111B115B0161F3083056C
:100480000130B507031CB9291F3083055028472ABE
:100490000713871364000330A000A1012D2464001A
:1004A0009F17831630309F0000308312A000722403
:1004B00083161E088312B8001E08B9003808A00071
:1004C0003908A1000130A30055301424031D6F2A00
:1004D0003015B011B0123111B115B117722A1F3099
:1004E000830530111F3083059F226430A8005624F5
:1004F0000800311E822A8512071206130711061200
:1005000007109C2A1F308305301B0617301F061367
:10051000B01B0715B01F071131180716311C071241
:10052000B1188516B11C851231190714311D071039
:10053000B1190616B11D06121F3083050800B01947
:100540008717B01D8713301A8716301E8712B01A0E
:100550000717B01E0713B2190515B21D0511792230
:10056000B2100001B11A013E311B01380319B2105B
:10057000031DB2140001B218013EB11B013803196A
:10058000B210031DB214321CE82A0C303402031CD2
:10059000CE2A1F308305B21CCE2A87101F30830558
:1005A0000C3034020318D92A1F308305B21CD92A13
:1005B00087141F3083050F3034020318E32A3408F0
:1005C000013EB400E62A1F308305B4011F308305C5
:1005D0001F308305B218ED2A87101F3083053218AB
:1005E000F22A87101F308305B01D4014B019401047
:1005F000301EC014301AC010B01E4015B01A401181
:10060000B21DC015B219C011301D4016301940126C
:10061000B01F0B2B0F2B1F308305B11C102BC016E6
:100620001F308305B1194017B11D4013C0130800D6
:100630008519242BFF30B600FF30B7003112B21CF1
:10064000222B32101F3083051F3083050130360204
:10065000B6000030031C013E3702B7003608A00088
:100660003708A100A30100300B24031D382B3116DD
:100670001F308305080064000130B50035080A3CCE
:10068000031C4C2B85161430A000A1012D248512CB
:100690000130B507031C3E2B1F3083056400013079
:1006A000B50035080A3C031C5F2B07161430A00068
:1006B000A1012D2407120130B507031C512B1F3057
:1006C000830564000130B50035080A3C031C722B19
:1006D00006171430A000A1012D2406130130B50720
:1006E000031C642B1F3083050130B50035080A3C1C
:1006F000031C842B07151430A000A1012D24071121
:100700000130B507031C762B1F30830564000130D0
:10071000B50035080A3C031C972B06161430A000C0
:10072000A1012D2406120130B507031C892B1F30AF
:10073000830564000130B50035080A3C031CAA2B70
:1007400007141430A000A1012D2407100130B507B3
:10075000031C9C2B1F30830564000130B500350855
:10076000023C031CCF2B8516071606170715061625
:1007700007148714C830A000A1012D24640085123D
:10078000071206130711061207108710C830A000C1
:10079000A1012D2464000130B507031CAF2B1F30CD
:1007A00083056400C830A000A1012D246400080066
:1007B000D82B1030A800A101A001A70CA60C031C87
:1007C000E72B2208A00723080318230FA107A10C79
:1007D000A00CA50CA40CA80BDD2B240808001030DD
:1007E000A600A501A401210DA40DA50D2208A402B7
:1007F0002308031C230FA5020318052C2208A407B5
:1008000023080318230FA5070310A00DA10DA60BA5
:10081000F32B20080800A20005301D2CA200023096
:100820001D2CA20006301D2CA20003301D2CA2009E
:1008300004301D2CA20001301D2CA8002308210229
:10084000031D242C22082002043003180130031950
:1008500002302805031DFF300800A0080319382CBA
:100860003F24A003000000000000000000002D2C29
:10087000A108031908003F24A103A0032D2C0C306C
:10088000A500A50B412C000000001230A200A20B15
:100890004E2C502450240000000008005024472C07
:1008A0000D30A400A40B522C000008000A30A8024E
:1008B000031C08005B2C0630A802031C08005B2CFC
:1008C0001030A8020001031C013EA902031C08000D
:1008D000692C0A30A8020001031C013EA902031C76
:1008E0000800692CA00DA00D3C30A005C0309F056C
:1008F00020089F041F141430A80056249F149F182A
:100900007F2C0C131F100800AA00D030A80007305D
:10091000A90060242C0884000930AB000310962441
:10092000AA0CAB0B8F2C03149624080000082D048E
:10093000031C2D0680002E08A8002F08A9006024A3
:020940000800AD
:02400E000C3371
:00000001FF
