:100000008A110A12052800000900831685140511BB
:1000100085129F01831207309900831608309F00D4
:1000200083123F30831692000511831293019512BB
:1000300015121210921012150C309504A22083167E
:100040008F30810083126400AE01AF0185120A3047
:10005000A000A101E2206400B1013108073C031CAB
:100060004B289F17831630309F0403308312A00063
:10007000152183161E088312B3001E08B4002E0833
:100080003307AE002F080318013E3407AF000130DC
:10009000B107031C2D281F30830585162E08A000EC
:1000A0002F08A1000830A200A301A420B30021085A
:1000B000B4003308A0003408A1000130A300C83008
:1000C000C920031D6728C830B3000130B4001F30B9
:1000D00083053308A0003408A1000230A3008B3050
:1000E000C620031D77288B30B3000230B4001F30C8
:1000F0008305C8303302B5000130031C013E3402D1
:10010000B6003508B200320883169B001C140000AC
:100110001A088312B0003008A00020181516201C01
:100120001512A0189516A01C95120310A00C031010
:10013000200C93006400FF30A000A101E2206400C5
:100140002328A1280800A3281030A600A501A40197
:10015000210DA40DA50D2208A4022308031C230FC2
:10016000A5020318BA282208A40723080318230F9E
:10017000A5070310A00DA10DA60BA82820080800B4
:10018000A2000530D228A2000230D228A2000630F8
:10019000D228A2000330D228A2000430D228A20024
:1001A0000130D228A80023082102031DD9282208E3
:1001B0002002043003180130031902302805031D02
:1001C000FF300800A0080319ED28F420A003000068
:1001D0000000000000000000E228A1080319080048
:1001E000F420A103A003E2280C30A500A50BF628FB
:1001F000000000001230A200A20B032905210521F6
:100200000000000008000521FC280D30A400A40B0C
:100210000729000008000A30A802031C0800102962
:100220000630A802031C08001029A00DA00D3C30C8
:10023000A005C0309F0520089F041F143230A8007D
:0E0240000B219F149F1822290C131F10080079
:02400E00143369
:104200000000010002000300040004000500060095
:1042100007000800080009000A000B000C000D0050
:104220000D000E000F00100011001200130014000A
:10423000140015001600170018001A001B001C00BF
:104240001D001D001E001F00200021002200230071
:104250002400250026002700280029002A002B0022
:104260002C002D002E002F003000310032003300D2
:104270003400350036003700380039003A003B0082
:104280003C003D003E003F00400041004200430032
:10429000440045004600470048004A004B004D00DE
:1042A0004E004F005000510052005400550056007F
:1042B0005700580059005A005B005D005E005F0027
:1042C00060006100630064006500660068006900CA
:1042D0006A006B006D006E006F007000720073006A
:1042E000740076007700780079007B007C007D0008
:1042F000800081008200840085008700880089009A
:104300008B008C008D008F00900092009300950030
:104310009600980099009A009C009D009F00A000C4
:10432000A200A300A500A700A800AA00AB00AD0052
:10433000AE00B000B100B400B600B700B900BB00D9
:10434000BC00BE00C000C100C300C500C600C8005C
:10435000CA00CB00CD00CF00D100D200D400D600DF
:10436000D800DA00DB00DD00DF00E100E300E6005A
:10437000E700E900EB00ED00EF00F100F300F500CD
:08438000F700F900FB00FD004D
:00000001FF
